{
  "_format": "hh-sol-artifact-1",
  "contractName": "DIDRegistry",
  "sourceName": "contracts/DIDRegistry.sol",
  "abi": [
    {
      "anonymous": false,
      "inputs": [
        {
          "indexed": false,
          "internalType": "address",
          "name": "id",
          "type": "address"
        }
      ],
      "name": "CreatedDID",
      "type": "event"
    },
    {
      "anonymous": false,
      "inputs": [
        {
          "indexed": false,
          "internalType": "address",
          "name": "id",
          "type": "address"
        }
      ],
      "name": "DeletedDID",
      "type": "event"
    },
    {
      "anonymous": false,
      "inputs": [
        {
          "indexed": false,
          "internalType": "address",
          "name": "id",
          "type": "address"
        },
        {
          "indexed": false,
          "internalType": "address",
          "name": "newController",
          "type": "address"
        }
      ],
      "name": "SetController",
      "type": "event"
    },
    {
      "inputs": [
        {
          "internalType": "address",
          "name": "id",
          "type": "address"
        },
        {
          "internalType": "bytes1[65]",
          "name": "key",
          "type": "bytes1[65]"
        },
        {
          "internalType": "enum DIDRegistry.KeyPurpose",
          "name": "_purpose",
          "type": "uint8"
        }
      ],
      "name": "addKey",
      "outputs": [],
      "stateMutability": "nonpayable",
      "type": "function"
    },
    {
      "inputs": [
        {
          "internalType": "address",
          "name": "_subject",
          "type": "address"
        }
      ],
      "name": "createDID",
      "outputs": [],
      "stateMutability": "nonpayable",
      "type": "function"
    },
    {
      "inputs": [
        {
          "internalType": "address",
          "name": "id",
          "type": "address"
        }
      ],
      "name": "deleteDID",
      "outputs": [],
      "stateMutability": "nonpayable",
      "type": "function"
    },
    {
      "inputs": [
        {
          "internalType": "address",
          "name": "",
          "type": "address"
        }
      ],
      "name": "dids",
      "outputs": [
        {
          "internalType": "address",
          "name": "controller",
          "type": "address"
        },
        {
          "internalType": "uint256",
          "name": "created",
          "type": "uint256"
        },
        {
          "internalType": "uint256",
          "name": "updated",
          "type": "uint256"
        }
      ],
      "stateMutability": "view",
      "type": "function"
    },
    {
      "inputs": [
        {
          "internalType": "address",
          "name": "id",
          "type": "address"
        }
      ],
      "name": "getController",
      "outputs": [
        {
          "internalType": "address",
          "name": "",
          "type": "address"
        }
      ],
      "stateMutability": "view",
      "type": "function"
    },
    {
      "inputs": [
        {
          "internalType": "address",
          "name": "id",
          "type": "address"
        },
        {
          "internalType": "uint256",
          "name": "index",
          "type": "uint256"
        }
      ],
      "name": "getKey",
      "outputs": [
        {
          "internalType": "bytes1[65]",
          "name": "",
          "type": "bytes1[65]"
        },
        {
          "internalType": "uint256",
          "name": "",
          "type": "uint256"
        }
      ],
      "stateMutability": "view",
      "type": "function"
    },
    {
      "inputs": [
        {
          "internalType": "address",
          "name": "id",
          "type": "address"
        }
      ],
      "name": "getKeysLength",
      "outputs": [
        {
          "internalType": "uint8",
          "name": "",
          "type": "uint8"
        }
      ],
      "stateMutability": "view",
      "type": "function"
    },
    {
      "inputs": [
        {
          "internalType": "address",
          "name": "id",
          "type": "address"
        },
        {
          "internalType": "uint256",
          "name": "index",
          "type": "uint256"
        }
      ],
      "name": "removeKey",
      "outputs": [],
      "stateMutability": "nonpayable",
      "type": "function"
    },
    {
      "inputs": [
        {
          "internalType": "address",
          "name": "id",
          "type": "address"
        },
        {
          "internalType": "address",
          "name": "newController",
          "type": "address"
        }
      ],
      "name": "setController",
      "outputs": [],
      "stateMutability": "nonpayable",
      "type": "function"
    }
  ],
  "bytecode": "0x608060405234801561001057600080fd5b506113ff806100206000396000f3fe608060405234801561001057600080fd5b50600436106100935760003560e01c806381dd7b8e1161006657806381dd7b8e1461020057806388c662aa1461024e57806396996750146102bc578063a369f72e14610350578063a492467d146103e157610093565b80633593f81b1461009857806362f413cf146101145780637b7d6c68146101585780637f52e0a7146101bc575b600080fd5b6100da600480360360208110156100ae57600080fd5b81019080803573ffffffffffffffffffffffffffffffffffffffff16906020019092919050505061043c565b604051808473ffffffffffffffffffffffffffffffffffffffff168152602001838152602001828152602001935050505060405180910390f35b6101566004803603602081101561012a57600080fd5b81019080803573ffffffffffffffffffffffffffffffffffffffff169060200190929190505050610486565b005b6101ba6004803603604081101561016e57600080fd5b81019080803573ffffffffffffffffffffffffffffffffffffffff169060200190929190803573ffffffffffffffffffffffffffffffffffffffff169060200190929190505050610685565b005b6101fe600480360360208110156101d257600080fd5b81019080803573ffffffffffffffffffffffffffffffffffffffff1690602001909291905050506108a1565b005b61024c6004803603604081101561021657600080fd5b81019080803573ffffffffffffffffffffffffffffffffffffffff16906020019092919080359060200190929190505050610a60565b005b6102906004803603602081101561026457600080fd5b81019080803573ffffffffffffffffffffffffffffffffffffffff169060200190929190505050610d6b565b604051808273ffffffffffffffffffffffffffffffffffffffff16815260200191505060405180910390f35b61034e60048036036108608110156102d357600080fd5b81019080803573ffffffffffffffffffffffffffffffffffffffff1690602001909291908061082001906041806020026040519081016040528092919082604160200280828437600081840152601f19601f8201169050808301925050505050509192919290803560ff169060200190929190505050610dd6565b005b61039c6004803603604081101561036657600080fd5b81019080803573ffffffffffffffffffffffffffffffffffffffff16906020019092919080359060200190929190505050611049565b6040518083604160200280838360005b838110156103c75780820151818401526020810190506103ac565b505050509050018281526020019250505060405180910390f35b610423600480360360208110156103f757600080fd5b81019080803573ffffffffffffffffffffffffffffffffffffffff1690602001909291905050506111ba565b604051808260ff16815260200191505060405180910390f35b60006020528060005260406000206000915090508060000160009054906101000a900473ffffffffffffffffffffffffffffffffffffffff16908060010154908060020154905083565b600073ffffffffffffffffffffffffffffffffffffffff168173ffffffffffffffffffffffffffffffffffffffff161415610529576040517f08c379a000000000000000000000000000000000000000000000000000000000815260040180806020018281038252601b8152602001807f7375626a65637420616464726573732063616e6e6f742062652030000000000081525060200191505060405180910390fd5b336000808373ffffffffffffffffffffffffffffffffffffffff1673ffffffffffffffffffffffffffffffffffffffff16815260200190815260200160002060000160006101000a81548173ffffffffffffffffffffffffffffffffffffffff021916908373ffffffffffffffffffffffffffffffffffffffff160217905550426000808373ffffffffffffffffffffffffffffffffffffffff1673ffffffffffffffffffffffffffffffffffffffff16815260200190815260200160002060010181905550426000808373ffffffffffffffffffffffffffffffffffffffff1673ffffffffffffffffffffffffffffffffffffffff168152602001908152602001600020600201819055507f0db721201edcc6a174824bfb3ab68c0134aaa27c1cb1d9dce1f49b4da05a9d8581604051808273ffffffffffffffffffffffffffffffffffffffff16815260200191505060405180910390a150565b813373ffffffffffffffffffffffffffffffffffffffff166000808373ffffffffffffffffffffffffffffffffffffffff1673ffffffffffffffffffffffffffffffffffffffff16815260200190815260200160002060000160009054906101000a900473ffffffffffffffffffffffffffffffffffffffff1673ffffffffffffffffffffffffffffffffffffffff161461076b576040517f08c379a00000000000000000000000000000000000000000000000000000000081526004018080602001828103825260288152602001806113a26028913960400191505060405180910390fd5b816000808573ffffffffffffffffffffffffffffffffffffffff1673ffffffffffffffffffffffffffffffffffffffff16815260200190815260200160002060000160006101000a81548173ffffffffffffffffffffffffffffffffffffffff021916908373ffffffffffffffffffffffffffffffffffffffff160217905550426000808573ffffffffffffffffffffffffffffffffffffffff1673ffffffffffffffffffffffffffffffffffffffff168152602001908152602001600020600201819055507f9fdb07212c6f92fd298affc4000712177664bc3c4cae5f61098d42da6d05be1e8383604051808373ffffffffffffffffffffffffffffffffffffffff1681526020018273ffffffffffffffffffffffffffffffffffffffff1681526020019250505060405180910390a1505050565b803373ffffffffffffffffffffffffffffffffffffffff166000808373ffffffffffffffffffffffffffffffffffffffff1673ffffffffffffffffffffffffffffffffffffffff16815260200190815260200160002060000160009054906101000a900473ffffffffffffffffffffffffffffffffffffffff1673ffffffffffffffffffffffffffffffffffffffff1614610987576040517f08c379a00000000000000000000000000000000000000000000000000000000081526004018080602001828103825260288152602001806113a26028913960400191505060405180910390fd5b6000808373ffffffffffffffffffffffffffffffffffffffff1673ffffffffffffffffffffffffffffffffffffffff168152602001908152602001600020600080820160006101000a81549073ffffffffffffffffffffffffffffffffffffffff021916905560018201600090556002820160009055600382016000610a0d9190611208565b50507fc1f97ffb9c0e63cde1da69f5dfaccd682a0c007d652ee5b6b46c65671cd7b0eb82604051808273ffffffffffffffffffffffffffffffffffffffff16815260200191505060405180910390a15050565b813373ffffffffffffffffffffffffffffffffffffffff166000808373ffffffffffffffffffffffffffffffffffffffff1673ffffffffffffffffffffffffffffffffffffffff16815260200190815260200160002060000160009054906101000a900473ffffffffffffffffffffffffffffffffffffffff1673ffffffffffffffffffffffffffffffffffffffff1614610b46576040517f08c379a00000000000000000000000000000000000000000000000000000000081526004018080602001828103825260288152602001806113a26028913960400191505060405180910390fd5b60016000808573ffffffffffffffffffffffffffffffffffffffff1673ffffffffffffffffffffffffffffffffffffffff168152602001908152602001600020600301805490501115610cdf576000808473ffffffffffffffffffffffffffffffffffffffff1673ffffffffffffffffffffffffffffffffffffffff16815260200190815260200160002060030160016000808673ffffffffffffffffffffffffffffffffffffffff1673ffffffffffffffffffffffffffffffffffffffff168152602001908152602001600020600301805490500381548110610c2657fe5b90600052602060002090600402016000808573ffffffffffffffffffffffffffffffffffffffff1673ffffffffffffffffffffffffffffffffffffffff1681526020019081526020016000206003018381548110610c8057fe5b90600052602060002090600402016000820181600001906041610ca492919061122c565b506003820160009054906101000a900460ff168160030160006101000a81548160ff02191690836002811115610cd657fe5b02179055509050505b6000808473ffffffffffffffffffffffffffffffffffffffff1673ffffffffffffffffffffffffffffffffffffffff168152602001908152602001600020600301805480610d2957fe5b600190038181906000526020600020906004020160008082016000610d4e9190611277565b6003820160006101000a81549060ff021916905550509055505050565b60008060008373ffffffffffffffffffffffffffffffffffffffff1673ffffffffffffffffffffffffffffffffffffffff16815260200190815260200160002060000160009054906101000a900473ffffffffffffffffffffffffffffffffffffffff169050919050565b823373ffffffffffffffffffffffffffffffffffffffff166000808373ffffffffffffffffffffffffffffffffffffffff1673ffffffffffffffffffffffffffffffffffffffff16815260200190815260200160002060000160009054906101000a900473ffffffffffffffffffffffffffffffffffffffff1673ffffffffffffffffffffffffffffffffffffffff1614610ebc576040517f08c379a00000000000000000000000000000000000000000000000000000000081526004018080602001828103825260288152602001806113a26028913960400191505060405180910390fd5b60206000808673ffffffffffffffffffffffffffffffffffffffff1673ffffffffffffffffffffffffffffffffffffffff1681526020019081526020016000206003018054905010610f76576040517f08c379a000000000000000000000000000000000000000000000000000000000815260040180806020018281038252601e8152602001807f444944206b6579206c696d697420686173206265656e2072656163686564000081525060200191505060405180910390fd5b6000808573ffffffffffffffffffffffffffffffffffffffff1673ffffffffffffffffffffffffffffffffffffffff1681526020019081526020016000206003016040518060400160405280858152602001846002811115610fd457fe5b815250908060018154018082558091505060019003906000526020600020906004020160009091909190915060008201518160000190604161101792919061128c565b5060208201518160030160006101000a81548160ff0219169083600281111561103c57fe5b0217905550505050505050565b611051611326565b6000806000808673ffffffffffffffffffffffffffffffffffffffff1673ffffffffffffffffffffffffffffffffffffffff16815260200190815260200160002060030184815481106110a057fe5b906000526020600020906004020160030160009054906101000a900460ff1660028111156110ca57fe5b90506000808673ffffffffffffffffffffffffffffffffffffffff1673ffffffffffffffffffffffffffffffffffffffff168152602001908152602001600020600301848154811061111857fe5b906000526020600020906004020160000181816041806020026040519081016040528092919082604180156111a7576020028201916000905b82829054906101000a900460f81b7effffffffffffffffffffffffffffffffffffffffffffffffffffffffffffff1916815260200190600101906020826000010492830192600103820291508084116111515790505b5050505050915092509250509250929050565b60008060008373ffffffffffffffffffffffffffffffffffffffff1673ffffffffffffffffffffffffffffffffffffffff168152602001908152602001600020600301805490509050919050565b50805460008255600402906000526020600020908101906112299190611349565b50565b826041601f016020900481019282156112665791601f016020900482015b8281111561126557825482559160010191906001019061124a565b5b5090506112739190611384565b5090565b50600081556001016000815560010160009055565b826041601f016020900481019282156113155791602002820160005b838211156112e657835183826101000a81548160ff021916908360f81c021790555092602001926001016020816000010492830192600103026112a8565b80156113135782816101000a81549060ff02191690556001016020816000010492830192600103026112e6565b505b5090506113229190611384565b5090565b604051806108200160405280604190602082028036833780820191505090505090565b5b8082111561138057600080820160006113639190611277565b6003820160006101000a81549060ff02191690555060040161134a565b5090565b5b8082111561139d576000816000905550600101611385565b509056fe7472616e73616374696f6e2073656e646572206973206e6f742044494420636f6e74726f6c6c6572a2646970667358221220b2486e214aa34d3a2efda67175c3af746f51e37856edc2695f47d9d6139e4e4d64736f6c63430007030033",
  "linkReferences": {},
  "deployedLinkReferences": {}
}